{
  "contractName": "Voting",
  "abi": [
    {
      "inputs": [
        {
          "internalType": "string[]",
          "name": "candidateNames",
          "type": "string[]"
        }
      ],
      "stateMutability": "nonpayable",
      "type": "constructor"
    },
    {
      "inputs": [
        {
          "internalType": "string",
          "name": "candidate",
          "type": "string"
        }
      ],
      "name": "vote",
      "outputs": [],
      "stateMutability": "nonpayable",
      "type": "function"
    },
    {
      "inputs": [
        {
          "internalType": "string",
          "name": "candidate",
          "type": "string"
        }
      ],
      "name": "getVotes",
      "outputs": [
        {
          "internalType": "uint256",
          "name": "",
          "type": "uint256"
        }
      ],
      "stateMutability": "view",
      "type": "function",
      "constant": true
    },
    {
      "inputs": [],
      "name": "getCandidates",
      "outputs": [
        {
          "internalType": "string[]",
          "name": "",
          "type": "string[]"
        }
      ],
      "stateMutability": "view",
      "type": "function",
      "constant": true
    }
  ],
  "bytecode": "0x60806040523480156200001157600080fd5b50604051620011d1380380620011d18339818101604052810190620000379190620003d3565b80600190805190602001906200004f92919062000057565b505062000756565b828054828255906000526020600020908101928215620000a4579160200282015b82811115620000a35782518290816200009291906200066f565b509160200191906001019062000078565b5b509050620000b39190620000b7565b5090565b5b80821115620000db5760008181620000d19190620000df565b50600101620000b8565b5090565b508054620000ed906200045e565b6000825580601f1062000101575062000122565b601f01602090049060005260206000209081019062000121919062000125565b5b50565b5b808211156200014057600081600090555060010162000126565b5090565b6000604051905090565b600080fd5b600080fd5b600080fd5b6000601f19601f8301169050919050565b7f4e487b7100000000000000000000000000000000000000000000000000000000600052604160045260246000fd5b620001a8826200015d565b810181811067ffffffffffffffff82111715620001ca57620001c96200016e565b5b80604052505050565b6000620001df62000144565b9050620001ed82826200019d565b919050565b600067ffffffffffffffff82111562000210576200020f6200016e565b5b602082029050602081019050919050565b600080fd5b600080fd5b600067ffffffffffffffff8211156200024957620002486200016e565b5b62000254826200015d565b9050602081019050919050565b60005b838110156200028157808201518184015260208101905062000264565b60008484015250505050565b6000620002a46200029e846200022b565b620001d3565b905082815260208101848484011115620002c357620002c262000226565b5b620002d084828562000261565b509392505050565b600082601f830112620002f057620002ef62000158565b5b8151620003028482602086016200028d565b91505092915050565b6000620003226200031c84620001f2565b620001d3565b9050808382526020820190506020840283018581111562000348576200034762000221565b5b835b818110156200039657805167ffffffffffffffff81111562000371576200037062000158565b5b808601620003808982620002d8565b855260208501945050506020810190506200034a565b5050509392505050565b600082601f830112620003b857620003b762000158565b5b8151620003ca8482602086016200030b565b91505092915050565b600060208284031215620003ec57620003eb6200014e565b5b600082015167ffffffffffffffff8111156200040d576200040c62000153565b5b6200041b84828501620003a0565b91505092915050565b600081519050919050565b7f4e487b7100000000000000000000000000000000000000000000000000000000600052602260045260246000fd5b600060028204905060018216806200047757607f821691505b6020821081036200048d576200048c6200042f565b5b50919050565b60008190508160005260206000209050919050565b60006020601f8301049050919050565b600082821b905092915050565b600060088302620004f77fffffffffffffffffffffffffffffffffffffffffffffffffffffffffffffffff82620004b8565b620005038683620004b8565b95508019841693508086168417925050509392505050565b6000819050919050565b6000819050919050565b6000620005506200054a62000544846200051b565b62000525565b6200051b565b9050919050565b6000819050919050565b6200056c836200052f565b620005846200057b8262000557565b848454620004c5565b825550505050565b600090565b6200059b6200058c565b620005a881848462000561565b505050565b5b81811015620005d057620005c460008262000591565b600181019050620005ae565b5050565b601f8211156200061f57620005e98162000493565b620005f484620004a8565b8101602085101562000604578190505b6200061c6200061385620004a8565b830182620005ad565b50505b505050565b600082821c905092915050565b6000620006446000198460080262000624565b1980831691505092915050565b60006200065f838362000631565b9150826002028217905092915050565b6200067a8262000424565b67ffffffffffffffff8111156200069657620006956200016e565b5b620006a282546200045e565b620006af828285620005d4565b600060209050601f831160018114620006e75760008415620006d2578287015190505b620006de858262000651565b8655506200074e565b601f198416620006f78662000493565b60005b828110156200072157848901518255600182019150602085019450602081019050620006fa565b868310156200074157848901516200073d601f89168262000631565b8355505b6001600288020188555050505b505050505050565b610a6b80620007666000396000f3fe608060405234801561001057600080fd5b50600436106100415760003560e01c806306a49fce14610046578063805265e514610064578063fc36e15b14610094575b600080fd5b61004e6100b0565b60405161005b919061055c565b60405180910390f35b61007e600480360381019061007991906106c7565b610189565b60405161008b9190610729565b60405180910390f35b6100ae60048036038101906100a991906106c7565b6101f9565b005b60606001805480602002602001604051908101604052809291908181526020016000905b828210156101805783829060005260206000200180546100f390610773565b80601f016020809104026020016040519081016040528092919081815260200182805461011f90610773565b801561016c5780601f106101415761010080835404028352916020019161016c565b820191906000526020600020905b81548152906001019060200180831161014f57829003601f168201915b5050505050815260200190600101906100d4565b50505050905090565b60006101948261035d565b6101d3576040517f08c379a00000000000000000000000000000000000000000000000000000000081526004016101ca90610801565b60405180910390fd5b6000826040516101e3919061085d565b9081526020016040518091039020549050919050565b600260003373ffffffffffffffffffffffffffffffffffffffff1673ffffffffffffffffffffffffffffffffffffffff16815260200190815260200160002060009054906101000a900460ff1615610286576040517f08c379a000000000000000000000000000000000000000000000000000000000815260040161027d906108c0565b60405180910390fd5b61028f8161035d565b6102ce576040517f08c379a00000000000000000000000000000000000000000000000000000000081526004016102c590610801565b60405180910390fd5b6001600260003373ffffffffffffffffffffffffffffffffffffffff1673ffffffffffffffffffffffffffffffffffffffff16815260200190815260200160002060006101000a81548160ff021916908315150217905550600081604051610336919061085d565b908152602001604051809103902060008154809291906103559061090f565b919050555050565b600080600090505b6001805490508110156103ff5782604051602001610383919061085d565b60405160208183030381529060405280519060200120600182815481106103ad576103ac610957565b5b906000526020600020016040516020016103c79190610a1e565b60405160208183030381529060405280519060200120036103ec576001915050610405565b80806103f79061090f565b915050610365565b50600090505b919050565b600081519050919050565b600082825260208201905092915050565b6000819050602082019050919050565b600081519050919050565b600082825260208201905092915050565b60005b83811015610470578082015181840152602081019050610455565b60008484015250505050565b6000601f19601f8301169050919050565b600061049882610436565b6104a28185610441565b93506104b2818560208601610452565b6104bb8161047c565b840191505092915050565b60006104d2838361048d565b905092915050565b6000602082019050919050565b60006104f28261040a565b6104fc8185610415565b93508360208202850161050e85610426565b8060005b8581101561054a578484038952815161052b85826104c6565b9450610536836104da565b925060208a01995050600181019050610512565b50829750879550505050505092915050565b6000602082019050818103600083015261057681846104e7565b905092915050565b6000604051905090565b600080fd5b600080fd5b600080fd5b600080fd5b7f4e487b7100000000000000000000000000000000000000000000000000000000600052604160045260246000fd5b6105d48261047c565b810181811067ffffffffffffffff821117156105f3576105f261059c565b5b80604052505050565b600061060661057e565b905061061282826105cb565b919050565b600067ffffffffffffffff8211156106325761063161059c565b5b61063b8261047c565b9050602081019050919050565b82818337600083830152505050565b600061066a61066584610617565b6105fc565b90508281526020810184848401111561068657610685610597565b5b610691848285610648565b509392505050565b600082601f8301126106ae576106ad610592565b5b81356106be848260208601610657565b91505092915050565b6000602082840312156106dd576106dc610588565b5b600082013567ffffffffffffffff8111156106fb576106fa61058d565b5b61070784828501610699565b91505092915050565b6000819050919050565b61072381610710565b82525050565b600060208201905061073e600083018461071a565b92915050565b7f4e487b7100000000000000000000000000000000000000000000000000000000600052602260045260246000fd5b6000600282049050600182168061078b57607f821691505b60208210810361079e5761079d610744565b5b50919050565b600082825260208201905092915050565b7f496e76616c69642063616e6469646174652e0000000000000000000000000000600082015250565b60006107eb6012836107a4565b91506107f6826107b5565b602082019050919050565b6000602082019050818103600083015261081a816107de565b9050919050565b600081905092915050565b600061083782610436565b6108418185610821565b9350610851818560208601610452565b80840191505092915050565b6000610869828461082c565b915081905092915050565b7f596f75206861766520616c726561647920766f7465642e000000000000000000600082015250565b60006108aa6017836107a4565b91506108b582610874565b602082019050919050565b600060208201905081810360008301526108d98161089d565b9050919050565b7f4e487b7100000000000000000000000000000000000000000000000000000000600052601160045260246000fd5b600061091a82610710565b91507fffffffffffffffffffffffffffffffffffffffffffffffffffffffffffffffff820361094c5761094b6108e0565b5b600182019050919050565b7f4e487b7100000000000000000000000000000000000000000000000000000000600052603260045260246000fd5b60008190508160005260206000209050919050565b600081546109a881610773565b6109b28186610821565b945060018216600081146109cd57600181146109e257610a15565b60ff1983168652811515820286019350610a15565b6109eb85610986565b60005b83811015610a0d578154818901526001820191506020810190506109ee565b838801955050505b50505092915050565b6000610a2a828461099b565b91508190509291505056fea26469706673582212209f9af672d81f4f8334a6403e5b5e5288ff896a80b235fbda6dbf4ae2dd9046bc64736f6c63430008130033",
  "immutableReferences": {},
  "source": "pragma solidity ^0.8.0;\n\ncontract Voting {\n    mapping(string => uint256) private votes;\n    string[] private candidates;\n    mapping(address => bool) private voters;\n\n    constructor(string[] memory candidateNames) {\n        candidates = candidateNames;\n    }\n\n    function vote(string memory candidate) public {\n        require(!voters[msg.sender], \"You have already voted.\");\n        require(validCandidate(candidate), \"Invalid candidate.\");\n        \n        voters[msg.sender] = true;\n        votes[candidate]++;\n    }\n\n    function getVotes(string memory candidate) public view returns(uint256) {\n        require(validCandidate(candidate), \"Invalid candidate.\");\n        return votes[candidate];\n    }\n\n    function getCandidates() public view returns(string[] memory) {\n        return candidates;\n    }\n\n    function validCandidate(string memory candidate) internal view returns(bool) {\n        for(uint i = 0; i < candidates.length; i++) {\n            if (keccak256(abi.encodePacked(candidates[i])) == keccak256(abi.encodePacked(candidate))) {\n                return true;\n            }\n        }\n        return false;\n    }\n}",
  "sourcePath": "/home/fentavril/projects/EthVoting/ethereum-voting-contract/contracts/Voting.sol",
  "compiler": {
    "name": "solc",
    "version": "0.8.19+commit.7dd6d404.Emscripten.clang"
  },
  "schemaVersion": "3.4.4",
  "updatedAt": "2025-05-12T17:13:50.885Z",
  "networkType": "ethereum",
  "devdoc": {
    "kind": "dev",
    "methods": {},
    "version": 1
  },
  "userdoc": {
    "kind": "user",
    "methods": {},
    "version": 1
  }
}